{
  "_format": "hh-sol-artifact-1",
  "contractName": "Raffle",
  "sourceName": "contracts/Raffle.sol",
  "abi": [
    {
      "inputs": [
        {
          "internalType": "address",
          "name": "vrfCoordinatorV2",
          "type": "address"
        },
        {
          "internalType": "uint256",
          "name": "entranceFee",
          "type": "uint256"
        },
        {
          "internalType": "bytes32",
          "name": "gasLane",
          "type": "bytes32"
        },
        {
          "internalType": "uint64",
          "name": "subscriptionId",
          "type": "uint64"
        },
        {
          "internalType": "uint32",
          "name": "callbackGasLimit",
          "type": "uint32"
        },
        {
          "internalType": "uint256",
          "name": "interval",
          "type": "uint256"
        }
      ],
      "stateMutability": "nonpayable",
      "type": "constructor"
    },
    {
      "inputs": [
        {
          "internalType": "address",
          "name": "have",
          "type": "address"
        },
        {
          "internalType": "address",
          "name": "want",
          "type": "address"
        }
      ],
      "name": "OnlyCoordinatorCanFulfill",
      "type": "error"
    },
    {
      "inputs": [],
      "name": "Raffel__TransactionFailed",
      "type": "error"
    },
    {
      "inputs": [],
      "name": "Raffle__NotEnoughETHEntered",
      "type": "error"
    },
    {
      "inputs": [],
      "name": "Raffle__NotOpen",
      "type": "error"
    },
    {
      "inputs": [
        {
          "internalType": "uint256",
          "name": "currentBalance",
          "type": "uint256"
        },
        {
          "internalType": "uint256",
          "name": "numplayers",
          "type": "uint256"
        },
        {
          "internalType": "uint256",
          "name": "raffleState",
          "type": "uint256"
        }
      ],
      "name": "Raffle__UpKeepNotNeeded",
      "type": "error"
    },
    {
      "anonymous": false,
      "inputs": [
        {
          "indexed": true,
          "internalType": "address",
          "name": "s_player",
          "type": "address"
        }
      ],
      "name": "RaffleEnter",
      "type": "event"
    },
    {
      "anonymous": false,
      "inputs": [
        {
          "indexed": true,
          "internalType": "uint256",
          "name": "requestId",
          "type": "uint256"
        }
      ],
      "name": "RequestedRaffleWinner",
      "type": "event"
    },
    {
      "anonymous": false,
      "inputs": [
        {
          "indexed": true,
          "internalType": "address",
          "name": "winner",
          "type": "address"
        }
      ],
      "name": "WinnerPicked",
      "type": "event"
    },
    {
      "inputs": [
        {
          "internalType": "bytes",
          "name": "",
          "type": "bytes"
        }
      ],
      "name": "checkUpkeep",
      "outputs": [
        {
          "internalType": "bool",
          "name": "upkeepNeeded",
          "type": "bool"
        },
        {
          "internalType": "bytes",
          "name": "",
          "type": "bytes"
        }
      ],
      "stateMutability": "view",
      "type": "function"
    },
    {
      "inputs": [],
      "name": "enterRaffle",
      "outputs": [],
      "stateMutability": "payable",
      "type": "function"
    },
    {
      "inputs": [],
      "name": "getEntranceFee",
      "outputs": [
        {
          "internalType": "uint256",
          "name": "",
          "type": "uint256"
        }
      ],
      "stateMutability": "view",
      "type": "function"
    },
    {
      "inputs": [],
      "name": "getInterval",
      "outputs": [
        {
          "internalType": "uint256",
          "name": "",
          "type": "uint256"
        }
      ],
      "stateMutability": "view",
      "type": "function"
    },
    {
      "inputs": [],
      "name": "getNumOfPlayers",
      "outputs": [
        {
          "internalType": "uint256",
          "name": "",
          "type": "uint256"
        }
      ],
      "stateMutability": "view",
      "type": "function"
    },
    {
      "inputs": [],
      "name": "getNumwords",
      "outputs": [
        {
          "internalType": "uint256",
          "name": "",
          "type": "uint256"
        }
      ],
      "stateMutability": "pure",
      "type": "function"
    },
    {
      "inputs": [
        {
          "internalType": "uint256",
          "name": "index",
          "type": "uint256"
        }
      ],
      "name": "getPlayer",
      "outputs": [
        {
          "internalType": "address",
          "name": "",
          "type": "address"
        }
      ],
      "stateMutability": "view",
      "type": "function"
    },
    {
      "inputs": [],
      "name": "getRaffleState",
      "outputs": [
        {
          "internalType": "enum Raffle.RaffleState",
          "name": "",
          "type": "uint8"
        }
      ],
      "stateMutability": "view",
      "type": "function"
    },
    {
      "inputs": [],
      "name": "getRecentWinner",
      "outputs": [
        {
          "internalType": "address",
          "name": "",
          "type": "address"
        }
      ],
      "stateMutability": "view",
      "type": "function"
    },
    {
      "inputs": [
        {
          "internalType": "bytes",
          "name": "",
          "type": "bytes"
        }
      ],
      "name": "performUpkeep",
      "outputs": [],
      "stateMutability": "nonpayable",
      "type": "function"
    },
    {
      "inputs": [
        {
          "internalType": "uint256",
          "name": "requestId",
          "type": "uint256"
        },
        {
          "internalType": "uint256[]",
          "name": "randomWords",
          "type": "uint256[]"
        }
      ],
      "name": "rawFulfillRandomWords",
      "outputs": [],
      "stateMutability": "nonpayable",
      "type": "function"
    }
  ],
  "bytecode": "0x6101606040523480156200001257600080fd5b50604051620017aa380380620017aa833981810160405281019062000038919062000294565b858073ffffffffffffffffffffffffffffffffffffffff1660808173ffffffffffffffffffffffffffffffffffffffff1681525050508460a081815250508573ffffffffffffffffffffffffffffffffffffffff1660c08173ffffffffffffffffffffffffffffffffffffffff16815250508360e081815250508267ffffffffffffffff166101008167ffffffffffffffff16815250508163ffffffff166101208163ffffffff16815250506000600160146101000a81548160ff021916908360018111156200010d576200010c62000330565b5b0217905550426002819055508061014081815250505050505050506200035f565b600080fd5b600073ffffffffffffffffffffffffffffffffffffffff82169050919050565b6000620001608262000133565b9050919050565b620001728162000153565b81146200017e57600080fd5b50565b600081519050620001928162000167565b92915050565b6000819050919050565b620001ad8162000198565b8114620001b957600080fd5b50565b600081519050620001cd81620001a2565b92915050565b6000819050919050565b620001e881620001d3565b8114620001f457600080fd5b50565b6000815190506200020881620001dd565b92915050565b600067ffffffffffffffff82169050919050565b6200022d816200020e565b81146200023957600080fd5b50565b6000815190506200024d8162000222565b92915050565b600063ffffffff82169050919050565b6200026e8162000253565b81146200027a57600080fd5b50565b6000815190506200028e8162000263565b92915050565b60008060008060008060c08789031215620002b457620002b36200012e565b5b6000620002c489828a0162000181565b9650506020620002d789828a01620001bc565b9550506040620002ea89828a01620001f7565b9450506060620002fd89828a016200023c565b93505060806200031089828a016200027d565b92505060a06200032389828a01620001bc565b9150509295509295509295565b7f4e487b7100000000000000000000000000000000000000000000000000000000600052602160045260246000fd5b60805160a05160c05160e0516101005161012051610140516113db620003cf6000396000818161076001526108090152600061061f015260006105fc015260006105db0152600061059f01526000818161027e015261037b0152600081816102bb015261030f01526113db6000f3fe60806040526004361061009c5760003560e01c8063473f1ddc11610064578063473f1ddc14610153578063565429de1461017e57806359f1b23c146101a95780636e04ff0d146101d457806391ad27b414610212578063e55ae4e81461023d5761009c565b806309bc33a7146100a1578063115cbaf5146100cc5780631fe543e3146100f75780632cfcc539146101205780634585e33b1461012a575b600080fd5b3480156100ad57600080fd5b506100b661027a565b6040516100c39190610b65565b60405180910390f35b3480156100d857600080fd5b506100e16102a2565b6040516100ee9190610bf7565b60405180910390f35b34801561010357600080fd5b5061011e60048036038101906101199190610dab565b6102b9565b005b610128610379565b005b34801561013657600080fd5b50610151600480360381019061014c9190610e62565b6104e8565b005b34801561015f57600080fd5b506101686106d8565b6040516101759190610ef0565b60405180910390f35b34801561018a57600080fd5b50610193610702565b6040516101a09190610b65565b60405180910390f35b3480156101b557600080fd5b506101be61070e565b6040516101cb9190610b65565b60405180910390f35b3480156101e057600080fd5b506101fb60048036038101906101f69190610fc0565b61071d565b6040516102099291906110a3565b60405180910390f35b34801561021e57600080fd5b50610227610805565b6040516102349190610b65565b60405180910390f35b34801561024957600080fd5b50610264600480360381019061025f91906110d3565b61082d565b6040516102719190610ef0565b60405180910390f35b60007f0000000000000000000000000000000000000000000000000000000000000000905090565b6000600160149054906101000a900460ff16905090565b7f000000000000000000000000000000000000000000000000000000000000000073ffffffffffffffffffffffffffffffffffffffff163373ffffffffffffffffffffffffffffffffffffffff161461036b57337f00000000000000000000000000000000000000000000000000000000000000006040517f1cf993f4000000000000000000000000000000000000000000000000000000008152600401610362929190611100565b60405180910390fd5b6103758282610874565b5050565b7f00000000000000000000000000000000000000000000000000000000000000003410156103d3576040517fbd4e069500000000000000000000000000000000000000000000000000000000815260040160405180910390fd5b600060018111156103e7576103e6610b80565b5b600160149054906101000a900460ff16600181111561040957610408610b80565b5b14610440576040517f1425571c00000000000000000000000000000000000000000000000000000000815260040160405180910390fd5b6000339080600181540180825580915050600190039060005260206000200160009091909190916101000a81548173ffffffffffffffffffffffffffffffffffffffff021916908373ffffffffffffffffffffffffffffffffffffffff1602179055503373ffffffffffffffffffffffffffffffffffffffff167f0805e1d667bddb8a95f0f09880cf94f403fb596ce79928d9f29b74203ba284d460405160405180910390a2565b60006105026040518060200160405280600081525061071d565b509050806105715747600080549050600160149054906101000a900460ff16600181111561053357610532610b80565b5b6040517f3a8d608600000000000000000000000000000000000000000000000000000000815260040161056893929190611129565b60405180910390fd5b60018060146101000a81548160ff0219169083600181111561059657610595610b80565b5b021790555060007f000000000000000000000000000000000000000000000000000000000000000073ffffffffffffffffffffffffffffffffffffffff16635d3b1d307f00000000000000000000000000000000000000000000000000000000000000007f000000000000000000000000000000000000000000000000000000000000000060037f000000000000000000000000000000000000000000000000000000000000000060016040518663ffffffff1660e01b81526004016106609594939291906111d8565b6020604051808303816000875af115801561067f573d6000803e3d6000fd5b505050506040513d601f19601f820116820180604052508101906106a39190611240565b9050807fcd6e45c8998311cab7e9d4385596cac867e20a0587194b954fa3a731c93ce78b60405160405180910390a250505050565b6000600160009054906101000a900473ffffffffffffffffffffffffffffffffffffffff16905090565b60008080549050905090565b6000600163ffffffff16905090565b600060606000600160149054906101000a900460ff16600181111561074557610744610b80565b5b6000600181111561075957610758610b80565b5b14905060007f00000000000000000000000000000000000000000000000000000000000000006002544261078d919061129c565b119050600080600080549050119050600080471190508280156107ad5750835b80156107b65750805b80156107bf5750815b9550856040518060400160405280600381526020017f30783000000000000000000000000000000000000000000000000000000000008152509550955050505050915091565b60007f0000000000000000000000000000000000000000000000000000000000000000905090565b6000808281548110610842576108416112d0565b5b9060005260206000200160009054906101000a900473ffffffffffffffffffffffffffffffffffffffff169050919050565b600080805490508260008151811061088f5761088e6112d0565b5b60200260200101516108a1919061132e565b905060008082815481106108b8576108b76112d0565b5b9060005260206000200160009054906101000a900473ffffffffffffffffffffffffffffffffffffffff16905080600160006101000a81548173ffffffffffffffffffffffffffffffffffffffff021916908373ffffffffffffffffffffffffffffffffffffffff1602179055506000600160146101000a81548160ff0219169083600181111561094c5761094b610b80565b5b0217905550600067ffffffffffffffff81111561096c5761096b610c68565b5b60405190808252806020026020018201604052801561099a5781602001602082028036833780820191505090505b50600090805190602001906109b0929190610aa5565b504260028190555060008173ffffffffffffffffffffffffffffffffffffffff16476040516109de90611390565b60006040518083038185875af1925050503d8060008114610a1b576040519150601f19603f3d011682016040523d82523d6000602084013e610a20565b606091505b5050905080610a5b576040517f1747251000000000000000000000000000000000000000000000000000000000815260040160405180910390fd5b8173ffffffffffffffffffffffffffffffffffffffff167f5b690ec4a06fe979403046eaeea5b3ce38524683c3001f662c8b5a829632f7df60405160405180910390a25050505050565b828054828255906000526020600020908101928215610b1e579160200282015b82811115610b1d5782518260006101000a81548173ffffffffffffffffffffffffffffffffffffffff021916908373ffffffffffffffffffffffffffffffffffffffff16021790555091602001919060010190610ac5565b5b509050610b2b9190610b2f565b5090565b5b80821115610b48576000816000905550600101610b30565b5090565b6000819050919050565b610b5f81610b4c565b82525050565b6000602082019050610b7a6000830184610b56565b92915050565b7f4e487b7100000000000000000000000000000000000000000000000000000000600052602160045260246000fd5b60028110610bc057610bbf610b80565b5b50565b6000819050610bd182610baf565b919050565b6000610be182610bc3565b9050919050565b610bf181610bd6565b82525050565b6000602082019050610c0c6000830184610be8565b92915050565b6000604051905090565b600080fd5b600080fd5b610c2f81610b4c565b8114610c3a57600080fd5b50565b600081359050610c4c81610c26565b92915050565b600080fd5b6000601f19601f8301169050919050565b7f4e487b7100000000000000000000000000000000000000000000000000000000600052604160045260246000fd5b610ca082610c57565b810181811067ffffffffffffffff82111715610cbf57610cbe610c68565b5b80604052505050565b6000610cd2610c12565b9050610cde8282610c97565b919050565b600067ffffffffffffffff821115610cfe57610cfd610c68565b5b602082029050602081019050919050565b600080fd5b6000610d27610d2284610ce3565b610cc8565b90508083825260208201905060208402830185811115610d4a57610d49610d0f565b5b835b81811015610d735780610d5f8882610c3d565b845260208401935050602081019050610d4c565b5050509392505050565b600082601f830112610d9257610d91610c52565b5b8135610da2848260208601610d14565b91505092915050565b60008060408385031215610dc257610dc1610c1c565b5b6000610dd085828601610c3d565b925050602083013567ffffffffffffffff811115610df157610df0610c21565b5b610dfd85828601610d7d565b9150509250929050565b600080fd5b60008083601f840112610e2257610e21610c52565b5b8235905067ffffffffffffffff811115610e3f57610e3e610e07565b5b602083019150836001820283011115610e5b57610e5a610d0f565b5b9250929050565b60008060208385031215610e7957610e78610c1c565b5b600083013567ffffffffffffffff811115610e9757610e96610c21565b5b610ea385828601610e0c565b92509250509250929050565b600073ffffffffffffffffffffffffffffffffffffffff82169050919050565b6000610eda82610eaf565b9050919050565b610eea81610ecf565b82525050565b6000602082019050610f056000830184610ee1565b92915050565b600080fd5b600067ffffffffffffffff821115610f2b57610f2a610c68565b5b610f3482610c57565b9050602081019050919050565b82818337600083830152505050565b6000610f63610f5e84610f10565b610cc8565b905082815260208101848484011115610f7f57610f7e610f0b565b5b610f8a848285610f41565b509392505050565b600082601f830112610fa757610fa6610c52565b5b8135610fb7848260208601610f50565b91505092915050565b600060208284031215610fd657610fd5610c1c565b5b600082013567ffffffffffffffff811115610ff457610ff3610c21565b5b61100084828501610f92565b91505092915050565b60008115159050919050565b61101e81611009565b82525050565b600081519050919050565b600082825260208201905092915050565b60005b8381101561105e578082015181840152602081019050611043565b60008484015250505050565b600061107582611024565b61107f818561102f565b935061108f818560208601611040565b61109881610c57565b840191505092915050565b60006040820190506110b86000830185611015565b81810360208301526110ca818461106a565b90509392505050565b6000602082840312156110e9576110e8610c1c565b5b60006110f784828501610c3d565b91505092915050565b60006040820190506111156000830185610ee1565b6111226020830184610ee1565b9392505050565b600060608201905061113e6000830186610b56565b61114b6020830185610b56565b6111586040830184610b56565b949350505050565b6000819050919050565b61117381611160565b82525050565b600067ffffffffffffffff82169050919050565b61119681611179565b82525050565b600061ffff82169050919050565b6111b38161119c565b82525050565b600063ffffffff82169050919050565b6111d2816111b9565b82525050565b600060a0820190506111ed600083018861116a565b6111fa602083018761118d565b61120760408301866111aa565b61121460608301856111c9565b61122160808301846111c9565b9695505050505050565b60008151905061123a81610c26565b92915050565b60006020828403121561125657611255610c1c565b5b60006112648482850161122b565b91505092915050565b7f4e487b7100000000000000000000000000000000000000000000000000000000600052601160045260246000fd5b60006112a782610b4c565b91506112b283610b4c565b92508282039050818111156112ca576112c961126d565b5b92915050565b7f4e487b7100000000000000000000000000000000000000000000000000000000600052603260045260246000fd5b7f4e487b7100000000000000000000000000000000000000000000000000000000600052601260045260246000fd5b600061133982610b4c565b915061134483610b4c565b925082611354576113536112ff565b5b828206905092915050565b600081905092915050565b50565b600061137a60008361135f565b91506113858261136a565b600082019050919050565b600061139b8261136d565b915081905091905056fea264697066735822122091be1ea4ab68265629f2ab8e3913329f4065f63a524371377678dfcfd7e5e8d964736f6c63430008110033",
  "linkReferences": {},
  "deployedLinkReferences": {}
}